{
  "_format": "hh-sol-artifact-1",
  "contractName": "ChainBattles",
  "sourceName": "contracts/ChainBattles.sol",
  "abi": [
    {
      "inputs": [],
      "stateMutability": "nonpayable",
      "type": "constructor"
    },
    {
      "anonymous": false,
      "inputs": [
        {
          "indexed": true,
          "internalType": "address",
          "name": "owner",
          "type": "address"
        },
        {
          "indexed": true,
          "internalType": "address",
          "name": "approved",
          "type": "address"
        },
        {
          "indexed": true,
          "internalType": "uint256",
          "name": "tokenId",
          "type": "uint256"
        }
      ],
      "name": "Approval",
      "type": "event"
    },
    {
      "anonymous": false,
      "inputs": [
        {
          "indexed": true,
          "internalType": "address",
          "name": "owner",
          "type": "address"
        },
        {
          "indexed": true,
          "internalType": "address",
          "name": "operator",
          "type": "address"
        },
        {
          "indexed": false,
          "internalType": "bool",
          "name": "approved",
          "type": "bool"
        }
      ],
      "name": "ApprovalForAll",
      "type": "event"
    },
    {
      "anonymous": false,
      "inputs": [
        {
          "indexed": true,
          "internalType": "address",
          "name": "from",
          "type": "address"
        },
        {
          "indexed": true,
          "internalType": "address",
          "name": "to",
          "type": "address"
        },
        {
          "indexed": true,
          "internalType": "uint256",
          "name": "tokenId",
          "type": "uint256"
        }
      ],
      "name": "Transfer",
      "type": "event"
    },
    {
      "inputs": [
        {
          "internalType": "address",
          "name": "to",
          "type": "address"
        },
        {
          "internalType": "uint256",
          "name": "tokenId",
          "type": "uint256"
        }
      ],
      "name": "approve",
      "outputs": [],
      "stateMutability": "nonpayable",
      "type": "function"
    },
    {
      "inputs": [
        {
          "internalType": "address",
          "name": "owner",
          "type": "address"
        }
      ],
      "name": "balanceOf",
      "outputs": [
        {
          "internalType": "uint256",
          "name": "",
          "type": "uint256"
        }
      ],
      "stateMutability": "view",
      "type": "function"
    },
    {
      "inputs": [
        {
          "internalType": "uint256",
          "name": "tokenId",
          "type": "uint256"
        }
      ],
      "name": "generateCharacter",
      "outputs": [
        {
          "internalType": "string",
          "name": "",
          "type": "string"
        }
      ],
      "stateMutability": "nonpayable",
      "type": "function"
    },
    {
      "inputs": [
        {
          "internalType": "uint256",
          "name": "tokenId",
          "type": "uint256"
        }
      ],
      "name": "getApproved",
      "outputs": [
        {
          "internalType": "address",
          "name": "",
          "type": "address"
        }
      ],
      "stateMutability": "view",
      "type": "function"
    },
    {
      "inputs": [
        {
          "internalType": "uint256",
          "name": "tokenId",
          "type": "uint256"
        }
      ],
      "name": "getLevels",
      "outputs": [
        {
          "internalType": "string",
          "name": "",
          "type": "string"
        }
      ],
      "stateMutability": "view",
      "type": "function"
    },
    {
      "inputs": [
        {
          "internalType": "uint256",
          "name": "tokenId",
          "type": "uint256"
        }
      ],
      "name": "getTokenURI",
      "outputs": [
        {
          "internalType": "string",
          "name": "",
          "type": "string"
        }
      ],
      "stateMutability": "nonpayable",
      "type": "function"
    },
    {
      "inputs": [
        {
          "internalType": "address",
          "name": "owner",
          "type": "address"
        },
        {
          "internalType": "address",
          "name": "operator",
          "type": "address"
        }
      ],
      "name": "isApprovedForAll",
      "outputs": [
        {
          "internalType": "bool",
          "name": "",
          "type": "bool"
        }
      ],
      "stateMutability": "view",
      "type": "function"
    },
    {
      "inputs": [],
      "name": "mint",
      "outputs": [],
      "stateMutability": "nonpayable",
      "type": "function"
    },
    {
      "inputs": [],
      "name": "name",
      "outputs": [
        {
          "internalType": "string",
          "name": "",
          "type": "string"
        }
      ],
      "stateMutability": "view",
      "type": "function"
    },
    {
      "inputs": [
        {
          "internalType": "uint256",
          "name": "tokenId",
          "type": "uint256"
        }
      ],
      "name": "ownerOf",
      "outputs": [
        {
          "internalType": "address",
          "name": "",
          "type": "address"
        }
      ],
      "stateMutability": "view",
      "type": "function"
    },
    {
      "inputs": [
        {
          "internalType": "address",
          "name": "from",
          "type": "address"
        },
        {
          "internalType": "address",
          "name": "to",
          "type": "address"
        },
        {
          "internalType": "uint256",
          "name": "tokenId",
          "type": "uint256"
        }
      ],
      "name": "safeTransferFrom",
      "outputs": [],
      "stateMutability": "nonpayable",
      "type": "function"
    },
    {
      "inputs": [
        {
          "internalType": "address",
          "name": "from",
          "type": "address"
        },
        {
          "internalType": "address",
          "name": "to",
          "type": "address"
        },
        {
          "internalType": "uint256",
          "name": "tokenId",
          "type": "uint256"
        },
        {
          "internalType": "bytes",
          "name": "data",
          "type": "bytes"
        }
      ],
      "name": "safeTransferFrom",
      "outputs": [],
      "stateMutability": "nonpayable",
      "type": "function"
    },
    {
      "inputs": [
        {
          "internalType": "address",
          "name": "operator",
          "type": "address"
        },
        {
          "internalType": "bool",
          "name": "approved",
          "type": "bool"
        }
      ],
      "name": "setApprovalForAll",
      "outputs": [],
      "stateMutability": "nonpayable",
      "type": "function"
    },
    {
      "inputs": [
        {
          "internalType": "bytes4",
          "name": "interfaceId",
          "type": "bytes4"
        }
      ],
      "name": "supportsInterface",
      "outputs": [
        {
          "internalType": "bool",
          "name": "",
          "type": "bool"
        }
      ],
      "stateMutability": "view",
      "type": "function"
    },
    {
      "inputs": [],
      "name": "symbol",
      "outputs": [
        {
          "internalType": "string",
          "name": "",
          "type": "string"
        }
      ],
      "stateMutability": "view",
      "type": "function"
    },
    {
      "inputs": [
        {
          "internalType": "uint256",
          "name": "",
          "type": "uint256"
        }
      ],
      "name": "tokenIdToLevels",
      "outputs": [
        {
          "internalType": "uint256",
          "name": "",
          "type": "uint256"
        }
      ],
      "stateMutability": "view",
      "type": "function"
    },
    {
      "inputs": [
        {
          "internalType": "uint256",
          "name": "tokenId",
          "type": "uint256"
        }
      ],
      "name": "tokenURI",
      "outputs": [
        {
          "internalType": "string",
          "name": "",
          "type": "string"
        }
      ],
      "stateMutability": "view",
      "type": "function"
    },
    {
      "inputs": [
        {
          "internalType": "address",
          "name": "from",
          "type": "address"
        },
        {
          "internalType": "address",
          "name": "to",
          "type": "address"
        },
        {
          "internalType": "uint256",
          "name": "tokenId",
          "type": "uint256"
        }
      ],
      "name": "transferFrom",
      "outputs": [],
      "stateMutability": "nonpayable",
      "type": "function"
    }
  ],
  "bytecode": "0x60806040523480156200001157600080fd5b506040518060400160405280600d81526020017f436861696e20426174746c6573000000000000000000000000000000000000008152506040518060400160405280600581526020017f4342544c53000000000000000000000000000000000000000000000000000000815250816000908051906020019062000096929190620000b8565b508060019080519060200190620000af929190620000b8565b505050620001cd565b828054620000c69062000197565b90600052602060002090601f016020900481019282620000ea576000855562000136565b82601f106200010557805160ff191683800117855562000136565b8280016001018555821562000136579182015b828111156200013557825182559160200191906001019062000118565b5b50905062000145919062000149565b5090565b5b80821115620001645760008160009055506001016200014a565b5090565b7f4e487b7100000000000000000000000000000000000000000000000000000000600052602260045260246000fd5b60006002820490506001821680620001b057607f821691505b60208210811415620001c757620001c662000168565b5b50919050565b61342e80620001dd6000396000f3fe608060405234801561001057600080fd5b50600436106101165760003560e01c80636352211e116100a2578063b88d4fde11610071578063b88d4fde146102f1578063c6a4342f1461030d578063c87b56dd1461033d578063e985e9c51461036d578063f43785f91461039d57610116565b80636352211e1461025757806370a082311461028757806395d89b41146102b7578063a22cb465146102d557610116565b80630daefed5116100e95780630daefed5146101b55780631249c58b146101e557806323b872dd146101ef5780633bb3a24d1461020b57806342842e0e1461023b57610116565b806301ffc9a71461011b57806306fdde031461014b578063081812fc14610169578063095ea7b314610199575b600080fd5b61013560048036038101906101309190611c2d565b6103cd565b6040516101429190611c75565b60405180910390f35b6101536104af565b6040516101609190611d29565b60405180910390f35b610183600480360381019061017e9190611d81565b610541565b6040516101909190611def565b60405180910390f35b6101b360048036038101906101ae9190611e36565b610587565b005b6101cf60048036038101906101ca9190611d81565b61069f565b6040516101dc9190611d29565b60405180910390f35b6101ed6106fd565b005b61020960048036038101906102049190611e76565b61074d565b005b61022560048036038101906102209190611d81565b6107ad565b6040516102329190611d29565b60405180910390f35b61025560048036038101906102509190611e76565b610815565b005b610271600480360381019061026c9190611d81565b610835565b60405161027e9190611def565b60405180910390f35b6102a1600480360381019061029c9190611ec9565b6108e7565b6040516102ae9190611f05565b60405180910390f35b6102bf61099f565b6040516102cc9190611d29565b60405180910390f35b6102ef60048036038101906102ea9190611f4c565b610a31565b005b61030b600480360381019061030691906120c1565b610a47565b005b61032760048036038101906103229190611d81565b610aa9565b6040516103349190611f05565b60405180910390f35b61035760048036038101906103529190611d81565b610ac1565b6040516103649190611d29565b60405180910390f35b61038760048036038101906103829190612144565b610bd4565b6040516103949190611c75565b60405180910390f35b6103b760048036038101906103b29190611d81565b610c68565b6040516103c49190611d29565b60405180910390f35b60007f80ac58cd000000000000000000000000000000000000000000000000000000007bffffffffffffffffffffffffffffffffffffffffffffffffffffffff1916827bffffffffffffffffffffffffffffffffffffffffffffffffffffffff1916148061049857507f5b5e139f000000000000000000000000000000000000000000000000000000007bffffffffffffffffffffffffffffffffffffffffffffffffffffffff1916827bffffffffffffffffffffffffffffffffffffffffffffffffffffffff1916145b806104a857506104a782610c93565b5b9050919050565b6060600080546104be906121b3565b80601f01602080910402602001604051908101604052809291908181526020018280546104ea906121b3565b80156105375780601f1061050c57610100808354040283529160200191610537565b820191906000526020600020905b81548152906001019060200180831161051a57829003601f168201915b5050505050905090565b600061054c82610cfd565b6004600083815260200190815260200160002060009054906101000a900473ffffffffffffffffffffffffffffffffffffffff169050919050565b600061059282610835565b90508073ffffffffffffffffffffffffffffffffffffffff168373ffffffffffffffffffffffffffffffffffffffff161415610603576040517f08c379a00000000000000000000000000000000000000000000000000000000081526004016105fa90612257565b60405180910390fd5b8073ffffffffffffffffffffffffffffffffffffffff16610622610d48565b73ffffffffffffffffffffffffffffffffffffffff16148061065157506106508161064b610d48565b610bd4565b5b610690576040517f08c379a0000000000000000000000000000000000000000000000000000000008152600401610687906122e9565b60405180910390fd5b61069a8383610d50565b505050565b606060006106ac83610c68565b6040516020016106bc919061276d565b60405160208183030381529060405290506106d681610e09565b6040516020016106e6919061283e565b604051602081830303815290604052915050919050565b6107076007610f6d565b60006107136007610f83565b905061071f3382610f91565b6000600860008381526020019081526020016000208190555061074a81610745836107ad565b610faf565b50565b61075e610758610d48565b82611023565b61079d576040517f08c379a0000000000000000000000000000000000000000000000000000000008152600401610794906128d2565b60405180910390fd5b6107a88383836110b8565b505050565b606060006107ba8361131f565b6107c38461069f565b6040516020016107d4929190612b2c565b60405160208183030381529060405290506107ee81610e09565b6040516020016107fe9190612be9565b604051602081830303815290604052915050919050565b61083083838360405180602001604052806000815250610a47565b505050565b6000806002600084815260200190815260200160002060009054906101000a900473ffffffffffffffffffffffffffffffffffffffff169050600073ffffffffffffffffffffffffffffffffffffffff168173ffffffffffffffffffffffffffffffffffffffff1614156108de576040517f08c379a00000000000000000000000000000000000000000000000000000000081526004016108d590612c57565b60405180910390fd5b80915050919050565b60008073ffffffffffffffffffffffffffffffffffffffff168273ffffffffffffffffffffffffffffffffffffffff161415610958576040517f08c379a000000000000000000000000000000000000000000000000000000000815260040161094f90612ce9565b60405180910390fd5b600360008373ffffffffffffffffffffffffffffffffffffffff1673ffffffffffffffffffffffffffffffffffffffff168152602001908152602001600020549050919050565b6060600180546109ae906121b3565b80601f01602080910402602001604051908101604052809291908181526020018280546109da906121b3565b8015610a275780601f106109fc57610100808354040283529160200191610a27565b820191906000526020600020905b815481529060010190602001808311610a0a57829003601f168201915b5050505050905090565b610a43610a3c610d48565b8383611480565b5050565b610a58610a52610d48565b83611023565b610a97576040517f08c379a0000000000000000000000000000000000000000000000000000000008152600401610a8e906128d2565b60405180910390fd5b610aa3848484846115ed565b50505050565b60086020528060005260406000206000915090505481565b6060610acc82610cfd565b6000600660008481526020019081526020016000208054610aec906121b3565b80601f0160208091040260200160405190810160405280929190818152602001828054610b18906121b3565b8015610b655780601f10610b3a57610100808354040283529160200191610b65565b820191906000526020600020905b815481529060010190602001808311610b4857829003601f168201915b505050505090506000610b76611649565b9050600081511415610b8c578192505050610bcf565b600082511115610bc1578082604051602001610ba9929190612d09565b60405160208183030381529060405292505050610bcf565b610bca84611660565b925050505b919050565b6000600560008473ffffffffffffffffffffffffffffffffffffffff1673ffffffffffffffffffffffffffffffffffffffff16815260200190815260200160002060008373ffffffffffffffffffffffffffffffffffffffff1673ffffffffffffffffffffffffffffffffffffffff16815260200190815260200160002060009054906101000a900460ff16905092915050565b6060600060086000848152602001908152602001600020549050610c8b8161131f565b915050919050565b60007f01ffc9a7000000000000000000000000000000000000000000000000000000007bffffffffffffffffffffffffffffffffffffffffffffffffffffffff1916827bffffffffffffffffffffffffffffffffffffffffffffffffffffffff1916149050919050565b610d06816116c8565b610d45576040517f08c379a0000000000000000000000000000000000000000000000000000000008152600401610d3c90612c57565b60405180910390fd5b50565b600033905090565b816004600083815260200190815260200160002060006101000a81548173ffffffffffffffffffffffffffffffffffffffff021916908373ffffffffffffffffffffffffffffffffffffffff160217905550808273ffffffffffffffffffffffffffffffffffffffff16610dc383610835565b73ffffffffffffffffffffffffffffffffffffffff167f8c5be1e5ebec7d5bd14f71427d1e84f3dd0314c0f7b2291e5b200ac8c7c3b92560405160405180910390a45050565b6060600082511415610e2c57604051806020016040528060008152509050610f68565b60006040518060600160405280604081526020016133b96040913990506000600360028551610e5b9190612d5c565b610e659190612de1565b6004610e719190612e12565b67ffffffffffffffff811115610e8a57610e89611f96565b5b6040519080825280601f01601f191660200182016040528015610ebc5781602001600182028036833780820191505090505b509050600182016020820185865187015b80821015610f28576003820191508151603f8160121c168501518453600184019350603f81600c1c168501518453600184019350603f8160061c168501518453600184019350603f8116850151845360018401935050610ecd565b5050600386510660018114610f445760028114610f5757610f5f565b603d6001830353603d6002830353610f5f565b603d60018303535b50505080925050505b919050565b6001816000016000828254019250508190555050565b600081600001549050919050565b610fab828260405180602001604052806000815250611734565b5050565b610fb8826116c8565b610ff7576040517f08c379a0000000000000000000000000000000000000000000000000000000008152600401610fee90612ede565b60405180910390fd5b8060066000848152602001908152602001600020908051906020019061101e929190611b1e565b505050565b60008061102f83610835565b90508073ffffffffffffffffffffffffffffffffffffffff168473ffffffffffffffffffffffffffffffffffffffff16148061107157506110708185610bd4565b5b806110af57508373ffffffffffffffffffffffffffffffffffffffff1661109784610541565b73ffffffffffffffffffffffffffffffffffffffff16145b91505092915050565b8273ffffffffffffffffffffffffffffffffffffffff166110d882610835565b73ffffffffffffffffffffffffffffffffffffffff161461112e576040517f08c379a000000000000000000000000000000000000000000000000000000000815260040161112590612f70565b60405180910390fd5b600073ffffffffffffffffffffffffffffffffffffffff168273ffffffffffffffffffffffffffffffffffffffff16141561119e576040517f08c379a000000000000000000000000000000000000000000000000000000000815260040161119590613002565b60405180910390fd5b6111a983838361178f565b6111b4600082610d50565b6001600360008573ffffffffffffffffffffffffffffffffffffffff1673ffffffffffffffffffffffffffffffffffffffff16815260200190815260200160002060008282546112049190613022565b925050819055506001600360008473ffffffffffffffffffffffffffffffffffffffff1673ffffffffffffffffffffffffffffffffffffffff168152602001908152602001600020600082825461125b9190612d5c565b92505081905550816002600083815260200190815260200160002060006101000a81548173ffffffffffffffffffffffffffffffffffffffff021916908373ffffffffffffffffffffffffffffffffffffffff160217905550808273ffffffffffffffffffffffffffffffffffffffff168473ffffffffffffffffffffffffffffffffffffffff167fddf252ad1be2c89b69c2b068fc378daa952ba7f163c4a11628f55a4df523b3ef60405160405180910390a461131a838383611794565b505050565b60606000821415611367576040518060400160405280600181526020017f3000000000000000000000000000000000000000000000000000000000000000815250905061147b565b600082905060005b6000821461139957808061138290613056565b915050600a826113929190612de1565b915061136f565b60008167ffffffffffffffff8111156113b5576113b4611f96565b5b6040519080825280601f01601f1916602001820160405280156113e75781602001600182028036833780820191505090505b5090505b60008514611474576001826114009190613022565b9150600a8561140f919061309f565b603061141b9190612d5c565b60f81b818381518110611431576114306130d0565b5b60200101907effffffffffffffffffffffffffffffffffffffffffffffffffffffffffffff1916908160001a905350600a8561146d9190612de1565b94506113eb565b8093505050505b919050565b8173ffffffffffffffffffffffffffffffffffffffff168373ffffffffffffffffffffffffffffffffffffffff1614156114ef576040517f08c379a00000000000000000000000000000000000000000000000000000000081526004016114e69061314b565b60405180910390fd5b80600560008573ffffffffffffffffffffffffffffffffffffffff1673ffffffffffffffffffffffffffffffffffffffff16815260200190815260200160002060008473ffffffffffffffffffffffffffffffffffffffff1673ffffffffffffffffffffffffffffffffffffffff16815260200190815260200160002060006101000a81548160ff0219169083151502179055508173ffffffffffffffffffffffffffffffffffffffff168373ffffffffffffffffffffffffffffffffffffffff167f17307eab39ab6107e8899845ad3d59bd9653f200f220920489ca2b5937696c31836040516115e09190611c75565b60405180910390a3505050565b6115f88484846110b8565b61160484848484611799565b611643576040517f08c379a000000000000000000000000000000000000000000000000000000000815260040161163a906131dd565b60405180910390fd5b50505050565b606060405180602001604052806000815250905090565b606061166b82610cfd565b6000611675611649565b9050600081511161169557604051806020016040528060008152506116c0565b8061169f8461131f565b6040516020016116b0929190612d09565b6040516020818303038152906040525b915050919050565b60008073ffffffffffffffffffffffffffffffffffffffff166002600084815260200190815260200160002060009054906101000a900473ffffffffffffffffffffffffffffffffffffffff1673ffffffffffffffffffffffffffffffffffffffff1614159050919050565b61173e8383611921565b61174b6000848484611799565b61178a576040517f08c379a0000000000000000000000000000000000000000000000000000000008152600401611781906131dd565b60405180910390fd5b505050565b505050565b505050565b60006117ba8473ffffffffffffffffffffffffffffffffffffffff16611afb565b15611914578373ffffffffffffffffffffffffffffffffffffffff1663150b7a026117e3610d48565b8786866040518563ffffffff1660e01b81526004016118059493929190613252565b6020604051808303816000875af192505050801561184157506040513d601f19601f8201168201806040525081019061183e91906132b3565b60015b6118c4573d8060008114611871576040519150601f19603f3d011682016040523d82523d6000602084013e611876565b606091505b506000815114156118bc576040517f08c379a00000000000000000000000000000000000000000000000000000000081526004016118b3906131dd565b60405180910390fd5b805181602001fd5b63150b7a0260e01b7bffffffffffffffffffffffffffffffffffffffffffffffffffffffff1916817bffffffffffffffffffffffffffffffffffffffffffffffffffffffff191614915050611919565b600190505b949350505050565b600073ffffffffffffffffffffffffffffffffffffffff168273ffffffffffffffffffffffffffffffffffffffff161415611991576040517f08c379a00000000000000000000000000000000000000000000000000000000081526004016119889061332c565b60405180910390fd5b61199a816116c8565b156119da576040517f08c379a00000000000000000000000000000000000000000000000000000000081526004016119d190613398565b60405180910390fd5b6119e66000838361178f565b6001600360008473ffffffffffffffffffffffffffffffffffffffff1673ffffffffffffffffffffffffffffffffffffffff1681526020019081526020016000206000828254611a369190612d5c565b92505081905550816002600083815260200190815260200160002060006101000a81548173ffffffffffffffffffffffffffffffffffffffff021916908373ffffffffffffffffffffffffffffffffffffffff160217905550808273ffffffffffffffffffffffffffffffffffffffff16600073ffffffffffffffffffffffffffffffffffffffff167fddf252ad1be2c89b69c2b068fc378daa952ba7f163c4a11628f55a4df523b3ef60405160405180910390a4611af760008383611794565b5050565b6000808273ffffffffffffffffffffffffffffffffffffffff163b119050919050565b828054611b2a906121b3565b90600052602060002090601f016020900481019282611b4c5760008555611b93565b82601f10611b6557805160ff1916838001178555611b93565b82800160010185558215611b93579182015b82811115611b92578251825591602001919060010190611b77565b5b509050611ba09190611ba4565b5090565b5b80821115611bbd576000816000905550600101611ba5565b5090565b6000604051905090565b600080fd5b600080fd5b60007fffffffff0000000000000000000000000000000000000000000000000000000082169050919050565b611c0a81611bd5565b8114611c1557600080fd5b50565b600081359050611c2781611c01565b92915050565b600060208284031215611c4357611c42611bcb565b5b6000611c5184828501611c18565b91505092915050565b60008115159050919050565b611c6f81611c5a565b82525050565b6000602082019050611c8a6000830184611c66565b92915050565b600081519050919050565b600082825260208201905092915050565b60005b83811015611cca578082015181840152602081019050611caf565b83811115611cd9576000848401525b50505050565b6000601f19601f8301169050919050565b6000611cfb82611c90565b611d058185611c9b565b9350611d15818560208601611cac565b611d1e81611cdf565b840191505092915050565b60006020820190508181036000830152611d438184611cf0565b905092915050565b6000819050919050565b611d5e81611d4b565b8114611d6957600080fd5b50565b600081359050611d7b81611d55565b92915050565b600060208284031215611d9757611d96611bcb565b5b6000611da584828501611d6c565b91505092915050565b600073ffffffffffffffffffffffffffffffffffffffff82169050919050565b6000611dd982611dae565b9050919050565b611de981611dce565b82525050565b6000602082019050611e046000830184611de0565b92915050565b611e1381611dce565b8114611e1e57600080fd5b50565b600081359050611e3081611e0a565b92915050565b60008060408385031215611e4d57611e4c611bcb565b5b6000611e5b85828601611e21565b9250506020611e6c85828601611d6c565b9150509250929050565b600080600060608486031215611e8f57611e8e611bcb565b5b6000611e9d86828701611e21565b9350506020611eae86828701611e21565b9250506040611ebf86828701611d6c565b9150509250925092565b600060208284031215611edf57611ede611bcb565b5b6000611eed84828501611e21565b91505092915050565b611eff81611d4b565b82525050565b6000602082019050611f1a6000830184611ef6565b92915050565b611f2981611c5a565b8114611f3457600080fd5b50565b600081359050611f4681611f20565b92915050565b60008060408385031215611f6357611f62611bcb565b5b6000611f7185828601611e21565b9250506020611f8285828601611f37565b9150509250929050565b600080fd5b600080fd5b7f4e487b7100000000000000000000000000000000000000000000000000000000600052604160045260246000fd5b611fce82611cdf565b810181811067ffffffffffffffff82111715611fed57611fec611f96565b5b80604052505050565b6000612000611bc1565b905061200c8282611fc5565b919050565b600067ffffffffffffffff82111561202c5761202b611f96565b5b61203582611cdf565b9050602081019050919050565b82818337600083830152505050565b600061206461205f84612011565b611ff6565b9050828152602081018484840111156120805761207f611f91565b5b61208b848285612042565b509392505050565b600082601f8301126120a8576120a7611f8c565b5b81356120b8848260208601612051565b91505092915050565b600080600080608085870312156120db576120da611bcb565b5b60006120e987828801611e21565b94505060206120fa87828801611e21565b935050604061210b87828801611d6c565b925050606085013567ffffffffffffffff81111561212c5761212b611bd0565b5b61213887828801612093565b91505092959194509250565b6000806040838503121561215b5761215a611bcb565b5b600061216985828601611e21565b925050602061217a85828601611e21565b9150509250929050565b7f4e487b7100000000000000000000000000000000000000000000000000000000600052602260045260246000fd5b600060028204905060018216806121cb57607f821691505b602082108114156121df576121de612184565b5b50919050565b7f4552433732313a20617070726f76616c20746f2063757272656e74206f776e6560008201527f7200000000000000000000000000000000000000000000000000000000000000602082015250565b6000612241602183611c9b565b915061224c826121e5565b604082019050919050565b6000602082019050818103600083015261227081612234565b9050919050565b7f4552433732313a20617070726f76652063616c6c6572206973206e6f7420746f60008201527f6b656e206f776e6572206e6f7220617070726f76656420666f7220616c6c0000602082015250565b60006122d3603e83611c9b565b91506122de82612277565b604082019050919050565b60006020820190508181036000830152612302816122c6565b9050919050565b600081905092915050565b7f3c73766720786d6c6e733d22687474703a2f2f7777772e77332e6f72672f323060008201527f30302f73766722207072657365727665417370656374526174696f3d22784d6960208201527f6e594d696e206d656574222076696577426f783d22302030203335302033353060408201527f223e000000000000000000000000000000000000000000000000000000000000606082015250565b60006123bc606283612309565b91506123c782612314565b606282019050919050565b7f3c7374796c653e2e62617365207b2066696c6c3a2077686974653b20666f6e7460008201527f2d66616d696c793a2073657269663b20666f6e742d73697a653a20313470783b60208201527f207d3c2f7374796c653e00000000000000000000000000000000000000000000604082015250565b6000612454604a83612309565b915061245f826123d2565b604a82019050919050565b7f3c726563742077696474683d223130302522206865696768743d22313030252260008201527f2066696c6c3d22626c61636b22202f3e00000000000000000000000000000000602082015250565b60006124c6603083612309565b91506124d18261246a565b603082019050919050565b7f3c7465787420783d223530252220793d223430252220636c6173733d2262617360008201527f652220646f6d696e616e742d626173656c696e653d226d6964646c652220746560208201527f78742d616e63686f723d226d6964646c65223e00000000000000000000000000604082015250565b600061255e605383612309565b9150612569826124dc565b605382019050919050565b7f57617272696f7200000000000000000000000000000000000000000000000000600082015250565b60006125aa600783612309565b91506125b582612574565b600782019050919050565b7f3c2f746578743e00000000000000000000000000000000000000000000000000600082015250565b60006125f6600783612309565b9150612601826125c0565b600782019050919050565b7f3c7465787420783d223530252220793d223530252220636c6173733d2262617360008201527f652220646f6d696e616e742d626173656c696e653d226d6964646c652220746560208201527f78742d616e63686f723d226d6964646c65223e00000000000000000000000000604082015250565b600061268e605383612309565b91506126998261260c565b605382019050919050565b7f4c6576656c733a20000000000000000000000000000000000000000000000000600082015250565b60006126da600883612309565b91506126e5826126a4565b600882019050919050565b60006126fb82611c90565b6127058185612309565b9350612715818560208601611cac565b80840191505092915050565b7f3c2f7376673e0000000000000000000000000000000000000000000000000000600082015250565b6000612757600683612309565b915061276282612721565b600682019050919050565b6000612778826123af565b915061278382612447565b915061278e826124b9565b915061279982612551565b91506127a48261259d565b91506127af826125e9565b91506127ba82612681565b91506127c5826126cd565b91506127d182846126f0565b91506127dc826125e9565b91506127e78261274a565b915081905092915050565b7f646174613a696d6167652f7376672b786d6c3b6261736536342c000000000000600082015250565b6000612828601a83612309565b9150612833826127f2565b601a82019050919050565b60006128498261281b565b915061285582846126f0565b915081905092915050565b7f4552433732313a2063616c6c6572206973206e6f7420746f6b656e206f776e6560008201527f72206e6f7220617070726f766564000000000000000000000000000000000000602082015250565b60006128bc602e83611c9b565b91506128c782612860565b604082019050919050565b600060208201905081810360008301526128eb816128af565b9050919050565b7f7b00000000000000000000000000000000000000000000000000000000000000600082015250565b6000612928600183612309565b9150612933826128f2565b600182019050919050565b7f226e616d65223a2022436861696e20426174746c657320230000000000000000600082015250565b6000612974601883612309565b915061297f8261293e565b601882019050919050565b7f222c000000000000000000000000000000000000000000000000000000000000600082015250565b60006129c0600283612309565b91506129cb8261298a565b600282019050919050565b7f226465736372697074696f6e223a2022426174746c6573206f6e20636861696e60008201527f222c000000000000000000000000000000000000000000000000000000000000602082015250565b6000612a32602283612309565b9150612a3d826129d6565b602282019050919050565b7f22696d616765223a202200000000000000000000000000000000000000000000600082015250565b6000612a7e600a83612309565b9150612a8982612a48565b600a82019050919050565b7f2200000000000000000000000000000000000000000000000000000000000000600082015250565b6000612aca600183612309565b9150612ad582612a94565b600182019050919050565b7f7d00000000000000000000000000000000000000000000000000000000000000600082015250565b6000612b16600183612309565b9150612b2182612ae0565b600182019050919050565b6000612b378261291b565b9150612b4282612967565b9150612b4e82856126f0565b9150612b59826129b3565b9150612b6482612a25565b9150612b6f82612a71565b9150612b7b82846126f0565b9150612b8682612abd565b9150612b9182612b09565b91508190509392505050565b7f646174613a6170706c69636174696f6e2f6a736f6e3b6261736536342c000000600082015250565b6000612bd3601d83612309565b9150612bde82612b9d565b601d82019050919050565b6000612bf482612bc6565b9150612c0082846126f0565b915081905092915050565b7f4552433732313a20696e76616c696420746f6b656e2049440000000000000000600082015250565b6000612c41601883611c9b565b9150612c4c82612c0b565b602082019050919050565b60006020820190508181036000830152612c7081612c34565b9050919050565b7f4552433732313a2061646472657373207a65726f206973206e6f74206120766160008201527f6c6964206f776e65720000000000000000000000000000000000000000000000602082015250565b6000612cd3602983611c9b565b9150612cde82612c77565b604082019050919050565b60006020820190508181036000830152612d0281612cc6565b9050919050565b6000612d1582856126f0565b9150612d2182846126f0565b91508190509392505050565b7f4e487b7100000000000000000000000000000000000000000000000000000000600052601160045260246000fd5b6000612d6782611d4b565b9150612d7283611d4b565b9250827fffffffffffffffffffffffffffffffffffffffffffffffffffffffffffffffff03821115612da757612da6612d2d565b5b828201905092915050565b7f4e487b7100000000000000000000000000000000000000000000000000000000600052601260045260246000fd5b6000612dec82611d4b565b9150612df783611d4b565b925082612e0757612e06612db2565b5b828204905092915050565b6000612e1d82611d4b565b9150612e2883611d4b565b9250817fffffffffffffffffffffffffffffffffffffffffffffffffffffffffffffffff0483118215151615612e6157612e60612d2d565b5b828202905092915050565b7f45524337323155524953746f726167653a2055524920736574206f66206e6f6e60008201527f6578697374656e7420746f6b656e000000000000000000000000000000000000602082015250565b6000612ec8602e83611c9b565b9150612ed382612e6c565b604082019050919050565b60006020820190508181036000830152612ef781612ebb565b9050919050565b7f4552433732313a207472616e736665722066726f6d20696e636f72726563742060008201527f6f776e6572000000000000000000000000000000000000000000000000000000602082015250565b6000612f5a602583611c9b565b9150612f6582612efe565b604082019050919050565b60006020820190508181036000830152612f8981612f4d565b9050919050565b7f4552433732313a207472616e7366657220746f20746865207a65726f2061646460008201527f7265737300000000000000000000000000000000000000000000000000000000602082015250565b6000612fec602483611c9b565b9150612ff782612f90565b604082019050919050565b6000602082019050818103600083015261301b81612fdf565b9050919050565b600061302d82611d4b565b915061303883611d4b565b92508282101561304b5761304a612d2d565b5b828203905092915050565b600061306182611d4b565b91507fffffffffffffffffffffffffffffffffffffffffffffffffffffffffffffffff82141561309457613093612d2d565b5b600182019050919050565b60006130aa82611d4b565b91506130b583611d4b565b9250826130c5576130c4612db2565b5b828206905092915050565b7f4e487b7100000000000000000000000000000000000000000000000000000000600052603260045260246000fd5b7f4552433732313a20617070726f766520746f2063616c6c657200000000000000600082015250565b6000613135601983611c9b565b9150613140826130ff565b602082019050919050565b6000602082019050818103600083015261316481613128565b9050919050565b7f4552433732313a207472616e7366657220746f206e6f6e20455243373231526560008201527f63656976657220696d706c656d656e7465720000000000000000000000000000602082015250565b60006131c7603283611c9b565b91506131d28261316b565b604082019050919050565b600060208201905081810360008301526131f6816131ba565b9050919050565b600081519050919050565b600082825260208201905092915050565b6000613224826131fd565b61322e8185613208565b935061323e818560208601611cac565b61324781611cdf565b840191505092915050565b60006080820190506132676000830187611de0565b6132746020830186611de0565b6132816040830185611ef6565b81810360608301526132938184613219565b905095945050505050565b6000815190506132ad81611c01565b92915050565b6000602082840312156132c9576132c8611bcb565b5b60006132d78482850161329e565b91505092915050565b7f4552433732313a206d696e7420746f20746865207a65726f2061646472657373600082015250565b6000613316602083611c9b565b9150613321826132e0565b602082019050919050565b6000602082019050818103600083015261334581613309565b9050919050565b7f4552433732313a20746f6b656e20616c7265616479206d696e74656400000000600082015250565b6000613382601c83611c9b565b915061338d8261334c565b602082019050919050565b600060208201905081810360008301526133b181613375565b905091905056fe4142434445464748494a4b4c4d4e4f505152535455565758595a6162636465666768696a6b6c6d6e6f707172737475767778797a303132333435363738392b2fa2646970667358221220d3de9b91127d8b3b80218ad50c6fad02f7455a1d6f21e3d2b58f3c08cf5e008c64736f6c634300080a0033",
  "linkReferences": {},
  "deployedLinkReferences": {}
}